587677867 W4COLO12345678$WCA24110111594924129999999123456789    00000000  100000024110100000004VILMA           GCOLON           APONTE          N     
123456789 W4FUST12345678$WCA24110111594924129999999123456789    00000000  100000024110100000004JAIME           DFUSTER          ORTIZ           N     
655233467 W4OTER12345678$WCA24110111594924129999999123456789    00000000  100000024110100000004PETER           MOTERO           VAZQUEZ         N     
677989089 W4PERE12345678$WCA24110111594924129999999123456789    00000000  100000024110100000004ANGEL           GPEREZ           TORRES          N     
558568778 W4VELA12345678$WCA24110111594924129999999123456789    00000000  100000024110100000004BRUNYMARIE       VELAZQUEZ       TORRES          N     
