587677867 W4COLO12345678$WCA241031120672000664545454    00000000  100000024103100000004VILMA           GCOLON           APONTE          N     
123456789 W4FUST12345678$WCA241031120836000664545454    00000000  100000024103100000004JAIME           DFUSTER          ORTIZ           N     
655233467 W4OTER12345678$WCA241031120528000664545454    00000000  100000024103100000004PETER           MOTERO           VAZQUEZ         N     
677989089 W4PERE12345678$WCA241031120720000664545454    00000000  100000024103100000004ANGEL           GPEREZ           TORRES          N     
